{
  "contractName": "HotelBooking",
  "abi": [
    {
      "inputs": [],
      "stateMutability": "nonpayable",
      "type": "constructor"
    },
    {
      "anonymous": false,
      "inputs": [
        {
          "indexed": false,
          "internalType": "uint256",
          "name": "bookingId",
          "type": "uint256"
        }
      ],
      "name": "BookingCancelled",
      "type": "event"
    },
    {
      "anonymous": false,
      "inputs": [
        {
          "indexed": false,
          "internalType": "uint256",
          "name": "id",
          "type": "uint256"
        },
        {
          "indexed": false,
          "internalType": "string",
          "name": "name",
          "type": "string"
        },
        {
          "indexed": false,
          "internalType": "string",
          "name": "location",
          "type": "string"
        },
        {
          "indexed": false,
          "internalType": "uint256",
          "name": "pricePerNight",
          "type": "uint256"
        }
      ],
      "name": "HotelAdded",
      "type": "event"
    },
    {
      "anonymous": false,
      "inputs": [
        {
          "indexed": false,
          "internalType": "uint256",
          "name": "bookingId",
          "type": "uint256"
        },
        {
          "indexed": false,
          "internalType": "uint256",
          "name": "hotelId",
          "type": "uint256"
        },
        {
          "indexed": false,
          "internalType": "address",
          "name": "guest",
          "type": "address"
        },
        {
          "indexed": false,
          "internalType": "uint256",
          "name": "amount",
          "type": "uint256"
        }
      ],
      "name": "RoomBooked",
      "type": "event"
    },
    {
      "inputs": [],
      "name": "bookingCounter",
      "outputs": [
        {
          "internalType": "uint256",
          "name": "",
          "type": "uint256"
        }
      ],
      "stateMutability": "view",
      "type": "function",
      "constant": true
    },
    {
      "inputs": [
        {
          "internalType": "uint256",
          "name": "",
          "type": "uint256"
        }
      ],
      "name": "bookings",
      "outputs": [
        {
          "internalType": "uint256",
          "name": "id",
          "type": "uint256"
        },
        {
          "internalType": "uint256",
          "name": "hotelId",
          "type": "uint256"
        },
        {
          "internalType": "address",
          "name": "guest",
          "type": "address"
        },
        {
          "internalType": "uint256",
          "name": "checkInDate",
          "type": "uint256"
        },
        {
          "internalType": "uint256",
          "name": "checkOutDate",
          "type": "uint256"
        },
        {
          "internalType": "uint256",
          "name": "totalAmount",
          "type": "uint256"
        },
        {
          "internalType": "bool",
          "name": "isCancelled",
          "type": "bool"
        }
      ],
      "stateMutability": "view",
      "type": "function",
      "constant": true
    },
    {
      "inputs": [],
      "name": "hotelCounter",
      "outputs": [
        {
          "internalType": "uint256",
          "name": "",
          "type": "uint256"
        }
      ],
      "stateMutability": "view",
      "type": "function",
      "constant": true
    },
    {
      "inputs": [
        {
          "internalType": "uint256",
          "name": "",
          "type": "uint256"
        }
      ],
      "name": "hotels",
      "outputs": [
        {
          "internalType": "uint256",
          "name": "id",
          "type": "uint256"
        },
        {
          "internalType": "string",
          "name": "name",
          "type": "string"
        },
        {
          "internalType": "string",
          "name": "location",
          "type": "string"
        },
        {
          "internalType": "uint256",
          "name": "totalRooms",
          "type": "uint256"
        },
        {
          "internalType": "uint256",
          "name": "availableRooms",
          "type": "uint256"
        },
        {
          "internalType": "uint256",
          "name": "pricePerNight",
          "type": "uint256"
        },
        {
          "internalType": "address",
          "name": "hotelOwner",
          "type": "address"
        }
      ],
      "stateMutability": "view",
      "type": "function",
      "constant": true
    },
    {
      "inputs": [],
      "name": "owner",
      "outputs": [
        {
          "internalType": "address",
          "name": "",
          "type": "address"
        }
      ],
      "stateMutability": "view",
      "type": "function",
      "constant": true
    },
    {
      "inputs": [
        {
          "internalType": "address",
          "name": "",
          "type": "address"
        },
        {
          "internalType": "uint256",
          "name": "",
          "type": "uint256"
        }
      ],
      "name": "userBookings",
      "outputs": [
        {
          "internalType": "uint256",
          "name": "",
          "type": "uint256"
        }
      ],
      "stateMutability": "view",
      "type": "function",
      "constant": true
    },
    {
      "inputs": [
        {
          "internalType": "string",
          "name": "_name",
          "type": "string"
        },
        {
          "internalType": "string",
          "name": "_location",
          "type": "string"
        },
        {
          "internalType": "uint256",
          "name": "_totalRooms",
          "type": "uint256"
        },
        {
          "internalType": "uint256",
          "name": "_pricePerNight",
          "type": "uint256"
        }
      ],
      "name": "addHotel",
      "outputs": [],
      "stateMutability": "nonpayable",
      "type": "function"
    },
    {
      "inputs": [
        {
          "internalType": "uint256",
          "name": "_hotelId",
          "type": "uint256"
        },
        {
          "internalType": "uint256",
          "name": "_checkInDate",
          "type": "uint256"
        },
        {
          "internalType": "uint256",
          "name": "_checkOutDate",
          "type": "uint256"
        }
      ],
      "name": "bookRoom",
      "outputs": [],
      "stateMutability": "payable",
      "type": "function",
      "payable": true
    },
    {
      "inputs": [
        {
          "internalType": "uint256",
          "name": "_bookingId",
          "type": "uint256"
        }
      ],
      "name": "cancelBooking",
      "outputs": [],
      "stateMutability": "nonpayable",
      "type": "function"
    },
    {
      "inputs": [],
      "name": "getHotels",
      "outputs": [
        {
          "components": [
            {
              "internalType": "uint256",
              "name": "id",
              "type": "uint256"
            },
            {
              "internalType": "string",
              "name": "name",
              "type": "string"
            },
            {
              "internalType": "string",
              "name": "location",
              "type": "string"
            },
            {
              "internalType": "uint256",
              "name": "totalRooms",
              "type": "uint256"
            },
            {
              "internalType": "uint256",
              "name": "availableRooms",
              "type": "uint256"
            },
            {
              "internalType": "uint256",
              "name": "pricePerNight",
              "type": "uint256"
            },
            {
              "internalType": "address",
              "name": "hotelOwner",
              "type": "address"
            }
          ],
          "internalType": "struct HotelBooking.Hotel[]",
          "name": "",
          "type": "tuple[]"
        }
      ],
      "stateMutability": "view",
      "type": "function",
      "constant": true
    },
    {
      "inputs": [],
      "name": "getUserBookings",
      "outputs": [
        {
          "components": [
            {
              "internalType": "uint256",
              "name": "id",
              "type": "uint256"
            },
            {
              "internalType": "uint256",
              "name": "hotelId",
              "type": "uint256"
            },
            {
              "internalType": "address",
              "name": "guest",
              "type": "address"
            },
            {
              "internalType": "uint256",
              "name": "checkInDate",
              "type": "uint256"
            },
            {
              "internalType": "uint256",
              "name": "checkOutDate",
              "type": "uint256"
            },
            {
              "internalType": "uint256",
              "name": "totalAmount",
              "type": "uint256"
            },
            {
              "internalType": "bool",
              "name": "isCancelled",
              "type": "bool"
            }
          ],
          "internalType": "struct HotelBooking.Booking[]",
          "name": "",
          "type": "tuple[]"
        }
      ],
      "stateMutability": "view",
      "type": "function",
      "constant": true
    }
  ],
  "bytecode": "0x608060405234801561001057600080fd5b50600080546001600160a01b03191633179055611341806100326000396000f3fe60806040526004361061009c5760003560e01c80638da5cb5b116100645780638da5cb5b14610154578063cd33826514610176578063cebc046f146101a9578063d287ac42146101cb578063e3a4d3a2146101ed578063facefdb71461020d5761009c565b80630d2e677a146100a15780630dca825e146100cc5780631358646e146100ee5780631dab301e14610101578063336c81a814610134575b600080fd5b3480156100ad57600080fd5b506100b6610222565b6040516100c39190610f6b565b60405180910390f35b3480156100d857600080fd5b506100ec6100e7366004610e3c565b610463565b005b6100ec6100fc366004610e54565b610571565b34801561010d57600080fd5b5061012161011c366004610e3c565b610753565b6040516100c39796959493929190611201565b34801561014057600080fd5b506100ec61014f366004610dcb565b61079d565b34801561016057600080fd5b506101696108e7565b6040516100c39190610eca565b34801561018257600080fd5b50610196610191366004610e3c565b6108f6565b6040516100c39796959493929190611182565b3480156101b557600080fd5b506101be610a4b565b6040516100c39190610ede565b3480156101d757600080fd5b506101e0610bb0565b6040516100c3919061113c565b3480156101f957600080fd5b506101e0610208366004610d95565b610bb6565b34801561021957600080fd5b506101e0610be7565b6060600060015467ffffffffffffffff81111561024f57634e487b7160e01b600052604160045260246000fd5b60405190808252806020026020018201604052801561028857816020015b610275610bed565b81526020019060019003908161026d5790505b50905060015b600154811161045d57600360008281526020019081526020016000206040518060e0016040529081600082015481526020016001820180546102cf90611289565b80601f01602080910402602001604051908101604052809291908181526020018280546102fb90611289565b80156103485780601f1061031d57610100808354040283529160200191610348565b820191906000526020600020905b81548152906001019060200180831161032b57829003601f168201915b5050505050815260200160028201805461036190611289565b80601f016020809104026020016040519081016040528092919081815260200182805461038d90611289565b80156103da5780601f106103af576101008083540402835291602001916103da565b820191906000526020600020905b8154815290600101906020018083116103bd57829003601f168201915b50505091835250506003820154602082015260048201546040820152600582015460608201526006909101546001600160a01b03166080909101528261042160018461125b565b8151811061043f57634e487b7160e01b600052603260045260246000fd5b60200260200101819052508080610455906112c4565b91505061028e565b50905090565b600081815260046020526040902060028101546001600160a01b031633146104a65760405162461bcd60e51b815260040161049d906110a2565b60405180910390fd5b600681015460ff16156104cb5760405162461bcd60e51b815260040161049d906110d9565b600180820154600090815260036020526040812060068401805460ff1916909317909255600482018054916104ff836112c4565b90915550506005820154604051339180156108fc02916000818181858888f19350505050158015610534573d6000803e3d6000fd5b507ff774c001cb52a3566b767ed6e37c92706acb2b80a3ff6049e2849cd62725d08583604051610564919061113c565b60405180910390a1505050565b600083815260036020526040902060048101546105a05760405162461bcd60e51b815260040161049d90611110565b806005015434146105c35760405162461bcd60e51b815260040161049d9061106b565b60006105cf848461125b565b905060008183600501546105e3919061123c565b6002805491925060006105f5836112c4565b90915550506040805160e0810182526002805480835260208084018b815233858701818152606087018d8152608088018d815260a089018b8152600060c08b0181815298815260048089528c82209b518c5596516001808d019190915594518b8b0180546001600160a01b0319166001600160a01b03909216919091179055925160038b0155905189860155516005808a019190915595516006909801805460ff191698151598909817909755908652928252948420925483549283018455928452832001559084018054916106ca83611272565b909155505060068301546040516001600160a01b039091169082156108fc029083906000818181858888f1935050505015801561070b573d6000803e3d6000fd5b507f6d08e5f93d3a35a319939d9e303d89ccc4eaaa19b776ecda1ce8bc8579dacb1460025487338460405161074394939291906111dd565b60405180910390a1505050505050565b60046020819052600091825260409091208054600182015460028301546003840154948401546005850154600690950154939592946001600160a01b039092169390919060ff1687565b6000546001600160a01b031633146107c75760405162461bcd60e51b815260040161049d9061102a565b600180549060006107d7836112c4565b90915550506040805160e081018252600180548083526020808401898152848601899052606085018890526080850188905260a085018790523360c086015260009283526003825294909120835181559351805193949361083f938501929190910190610c33565b506040820151805161085b916002840191602090910190610c33565b50606082015160038201556080820151600482015560a0820151600582015560c090910151600690910180546001600160a01b0319166001600160a01b039092169190911790556001546040517f574c358c02c47ea1e2d75539e78a4fd64a0c68e4d0056163f1419382e745890b916108d991879087908690611145565b60405180910390a150505050565b6000546001600160a01b031681565b6003602052600090815260409020805460018201805491929161091890611289565b80601f016020809104026020016040519081016040528092919081815260200182805461094490611289565b80156109915780601f1061096657610100808354040283529160200191610991565b820191906000526020600020905b81548152906001019060200180831161097457829003601f168201915b5050505050908060020180546109a690611289565b80601f01602080910402602001604051908101604052809291908181526020018280546109d290611289565b8015610a1f5780601f106109f457610100808354040283529160200191610a1f565b820191906000526020600020905b815481529060010190602001808311610a0257829003601f168201915b50505050600383015460048401546005850154600690950154939491939092506001600160a01b031687565b33600090815260056020526040812080546060929067ffffffffffffffff811115610a8657634e487b7160e01b600052604160045260246000fd5b604051908082528060200260200182016040528015610abf57816020015b610aac610cb7565b815260200190600190039081610aa45790505b50905060005b8254811015610ba95760046000848381548110610af257634e487b7160e01b600052603260045260246000fd5b600091825260208083209091015483528281019390935260409182019020815160e0810183528154815260018201549381019390935260028101546001600160a01b0316918301919091526003810154606083015260048101546080830152600581015460a08301526006015460ff16151560c08201528251839083908110610b8b57634e487b7160e01b600052603260045260246000fd5b60200260200101819052508080610ba1906112c4565b915050610ac5565b5091505090565b60025481565b60056020528160005260406000208181548110610bd257600080fd5b90600052602060002001600091509150505481565b60015481565b6040518060e0016040528060008152602001606081526020016060815260200160008152602001600081526020016000815260200160006001600160a01b031681525090565b828054610c3f90611289565b90600052602060002090601f016020900481019282610c615760008555610ca7565b82601f10610c7a57805160ff1916838001178555610ca7565b82800160010185558215610ca7579182015b82811115610ca7578251825591602001919060010190610c8c565b50610cb3929150610cff565b5090565b6040518060e00160405280600081526020016000815260200160006001600160a01b031681526020016000815260200160008152602001600081526020016000151581525090565b5b80821115610cb35760008155600101610d00565b600082601f830112610d24578081fd5b813567ffffffffffffffff80821115610d3f57610d3f6112f5565b604051601f8301601f191681016020018281118282101715610d6357610d636112f5565b604052828152848301602001861015610d7a578384fd5b82602086016020830137918201602001929092529392505050565b60008060408385031215610da7578182fd5b82356001600160a01b0381168114610dbd578283fd5b946020939093013593505050565b60008060008060808587031215610de0578182fd5b843567ffffffffffffffff80821115610df7578384fd5b610e0388838901610d14565b95506020870135915080821115610e18578384fd5b50610e2587828801610d14565b949794965050505060408301359260600135919050565b600060208284031215610e4d578081fd5b5035919050565b600080600060608486031215610e68578283fd5b505081359360208301359350604090920135919050565b60008151808452815b81811015610ea457602081850181015186830182015201610e88565b81811115610eb55782602083870101525b50601f01601f19169290920160200192915050565b6001600160a01b0391909116815260200190565b602080825282518282018190526000919060409081850190868401855b82811015610f5e578151805185528681015187860152858101516001600160a01b031686860152606080820151908601526080808201519086015260a0808201519086015260c09081015115159085015260e09093019290850190600101610efb565b5091979650505050505050565b60208082528251828201819052600091906040908185019080840286018301878501865b8381101561101c57603f19898403018552815160e08151855288820151818a870152610fbd82870182610e7f565b9150508782015185820389870152610fd58282610e7f565b606084810151908801526080808501519088015260a0808501519088015260c0938401516001600160a01b0316939096019290925250509386019390860190600101610f8f565b509098975050505050505050565b60208082526021908201527f4f6e6c79206f776e65722063616e2063616c6c20746869732066756e6374696f6040820152603760f91b606082015260800190565b60208082526018908201527f496e636f7272656374207061796d656e7420616d6f756e740000000000000000604082015260600190565b6020808252601d908201527f4f6e6c7920626f6f6b696e672067756573742063616e2063616e63656c000000604082015260600190565b60208082526019908201527f426f6f6b696e6720616c72656164792063616e63656c6c656400000000000000604082015260600190565b6020808252601290820152714e6f20726f6f6d7320617661696c61626c6560701b604082015260600190565b90815260200190565b60008582526080602083015261115e6080830186610e7f565b82810360408401526111708186610e7f565b91505082606083015295945050505050565b600088825260e0602083015261119b60e0830189610e7f565b82810360408401526111ad8189610e7f565b60608401979097525050608081019390935260a08301919091526001600160a01b031660c0909101529392505050565b93845260208401929092526001600160a01b03166040830152606082015260800190565b96875260208701959095526001600160a01b039390931660408601526060850191909152608084015260a0830152151560c082015260e00190565b6000816000190483118215151615611256576112566112df565b500290565b60008282101561126d5761126d6112df565b500390565b600081611281576112816112df565b506000190190565b60028104600182168061129d57607f821691505b602082108114156112be57634e487b7160e01b600052602260045260246000fd5b50919050565b60006000198214156112d8576112d86112df565b5060010190565b634e487b7160e01b600052601160045260246000fd5b634e487b7160e01b600052604160045260246000fdfea26469706673582212200c8f72248c06aa470db783002d9a5fb2d27d7e1d3f4e0e614c9f052b574249e864736f6c63430008000033",
  "immutableReferences": {},
  "source": "// SPDX-License-Identifier: MIT\r\npragma solidity ^0.8.0;\r\n\r\ncontract HotelBooking {\r\n    address public owner;\r\n    \r\n    struct Hotel {\r\n        uint id;\r\n        string name;\r\n        string location;\r\n        uint totalRooms;\r\n        uint availableRooms;\r\n        uint pricePerNight;\r\n        address hotelOwner;\r\n    }\r\n    \r\n    struct Booking {\r\n        uint id;\r\n        uint hotelId;\r\n        address guest;\r\n        uint checkInDate;\r\n        uint checkOutDate;\r\n        uint totalAmount;\r\n        bool isCancelled;\r\n    }\r\n    \r\n    uint public hotelCounter;\r\n    uint public bookingCounter;\r\n    \r\n    mapping(uint => Hotel) public hotels;\r\n    mapping(uint => Booking) public bookings;\r\n    mapping(address => uint[]) public userBookings;\r\n    \r\n    event HotelAdded(uint id, string name, string location, uint pricePerNight);\r\n    event RoomBooked(uint bookingId, uint hotelId, address guest, uint amount);\r\n    event BookingCancelled(uint bookingId);\r\n    \r\n    constructor() {\r\n        owner = msg.sender;\r\n    }\r\n    \r\n    modifier onlyOwner() {\r\n        require(msg.sender == owner, \"Only owner can call this function\");\r\n        _;\r\n    }\r\n    \r\n    function addHotel(string memory _name, string memory _location, uint _totalRooms, uint _pricePerNight) public onlyOwner {\r\n        hotelCounter++;\r\n        hotels[hotelCounter] = Hotel(\r\n            hotelCounter,\r\n            _name,\r\n            _location,\r\n            _totalRooms,\r\n            _totalRooms,\r\n            _pricePerNight,\r\n            msg.sender\r\n        );\r\n        emit HotelAdded(hotelCounter, _name, _location, _pricePerNight);\r\n    }\r\n    \r\n    function bookRoom(uint _hotelId, uint _checkInDate, uint _checkOutDate) public payable {\r\n        Hotel storage hotel = hotels[_hotelId];\r\n        require(hotel.availableRooms > 0, \"No rooms available\");\r\n        require(msg.value == hotel.pricePerNight, \"Incorrect payment amount\");\r\n        \r\n        uint nights = _checkOutDate - _checkInDate;\r\n        uint totalAmount = hotel.pricePerNight * nights;\r\n        \r\n        bookingCounter++;\r\n        bookings[bookingCounter] = Booking(\r\n            bookingCounter,\r\n            _hotelId,\r\n            msg.sender,\r\n            _checkInDate,\r\n            _checkOutDate,\r\n            totalAmount,\r\n            false\r\n        );\r\n        \r\n        userBookings[msg.sender].push(bookingCounter);\r\n        hotel.availableRooms--;\r\n        payable(hotel.hotelOwner).transfer(totalAmount);\r\n        \r\n        emit RoomBooked(bookingCounter, _hotelId, msg.sender, totalAmount);\r\n    }\r\n    \r\n    function cancelBooking(uint _bookingId) public {\r\n        Booking storage booking = bookings[_bookingId];\r\n        require(booking.guest == msg.sender, \"Only booking guest can cancel\");\r\n        require(!booking.isCancelled, \"Booking already cancelled\");\r\n        \r\n        Hotel storage hotel = hotels[booking.hotelId];\r\n        booking.isCancelled = true;\r\n        hotel.availableRooms++;\r\n        payable(msg.sender).transfer(booking.totalAmount);\r\n        \r\n        emit BookingCancelled(_bookingId);\r\n    }\r\n    \r\n    function getHotels() public view returns (Hotel[] memory) {\r\n        Hotel[] memory hotelList = new Hotel[](hotelCounter);\r\n        for (uint i = 1; i <= hotelCounter; i++) {\r\n            hotelList[i-1] = hotels[i];\r\n        }\r\n        return hotelList;\r\n    }\r\n    \r\n    function getUserBookings() public view returns (Booking[] memory) {\r\n        uint[] storage userBookingIds = userBookings[msg.sender];\r\n        Booking[] memory userBookingList = new Booking[](userBookingIds.length);\r\n        for (uint i = 0; i < userBookingIds.length; i++) {\r\n            userBookingList[i] = bookings[userBookingIds[i]];\r\n        }\r\n        return userBookingList;\r\n    }\r\n}",
  "sourcePath": "C:\\Users\\A Pranathi\\Desktop\\Hotel_Dapp_revised\\Hotel_Dapp\\contracts\\HotelBooking.sol",
  "compiler": {
    "name": "solc",
    "version": "0.8.0+commit.c7dfd78e.Emscripten.clang"
  },
  "schemaVersion": "3.4.16",
  "updatedAt": "2025-04-17T17:03:19.169Z",
  "networkType": "ethereum",
  "devdoc": {
    "kind": "dev",
    "methods": {},
    "version": 1
  },
  "userdoc": {
    "kind": "user",
    "methods": {},
    "version": 1
  }
}